{
  "_format": "hh-sol-artifact-1",
  "contractName": "Token",
  "sourceName": "contracts/Token.sol",
  "abi": [
    {
      "inputs": [],
      "stateMutability": "nonpayable",
      "type": "constructor"
    },
    {
      "inputs": [
        {
          "internalType": "address",
          "name": "_account",
          "type": "address"
        }
      ],
      "name": "balanceOf",
      "outputs": [
        {
          "internalType": "uint256",
          "name": "",
          "type": "uint256"
        }
      ],
      "stateMutability": "view",
      "type": "function"
    },
    {
      "inputs": [],
      "name": "name",
      "outputs": [
        {
          "internalType": "string",
          "name": "",
          "type": "string"
        }
      ],
      "stateMutability": "view",
      "type": "function"
    },
    {
      "inputs": [],
      "name": "owner",
      "outputs": [
        {
          "internalType": "address",
          "name": "",
          "type": "address"
        }
      ],
      "stateMutability": "view",
      "type": "function"
    },
    {
      "inputs": [],
      "name": "symbol",
      "outputs": [
        {
          "internalType": "string",
          "name": "",
          "type": "string"
        }
      ],
      "stateMutability": "view",
      "type": "function"
    },
    {
      "inputs": [],
      "name": "totalSupply",
      "outputs": [
        {
          "internalType": "uint256",
          "name": "",
          "type": "uint256"
        }
      ],
      "stateMutability": "view",
      "type": "function"
    },
    {
      "inputs": [
        {
          "internalType": "address",
          "name": "_to",
          "type": "address"
        },
        {
          "internalType": "uint256",
          "name": "_amount",
          "type": "uint256"
        }
      ],
      "name": "transferToken",
      "outputs": [],
      "stateMutability": "nonpayable",
      "type": "function"
    }
  ],
  "bytecode": "0x60806040526040518060400160405280600781526020017f48617264686174000000000000000000000000000000000000000000000000008152506000908051906020019061004f92919061013c565b50620f42406002556040518060400160405280600381526020017f4d48540000000000000000000000000000000000000000000000000000000000815250600390805190602001906100a292919061013c565b503480156100af57600080fd5b50600254600460003373ffffffffffffffffffffffffffffffffffffffff1673ffffffffffffffffffffffffffffffffffffffff1681526020019081526020016000208190555033600160006101000a81548173ffffffffffffffffffffffffffffffffffffffff021916908373ffffffffffffffffffffffffffffffffffffffff160217905550610240565b828054610148906101df565b90600052602060002090601f01602090048101928261016a57600085556101b1565b82601f1061018357805160ff19168380011785556101b1565b828001600101855582156101b1579182015b828111156101b0578251825591602001919060010190610195565b5b5090506101be91906101c2565b5090565b5b808211156101db5760008160009055506001016101c3565b5090565b600060028204905060018216806101f757607f821691505b6020821081141561020b5761020a610211565b5b50919050565b7f4e487b7100000000000000000000000000000000000000000000000000000000600052602260045260246000fd5b610a368061024f6000396000f3fe608060405234801561001057600080fd5b50600436106100625760003560e01c806306fdde03146100675780631072cbea1461008557806318160ddd146100a157806370a08231146100bf5780638da5cb5b146100ef57806395d89b411461010d575b600080fd5b61006f61012b565b60405161007c9190610751565b60405180910390f35b61009f600480360381019061009a9190610663565b6101b9565b005b6100a96103a9565b6040516100b69190610801565b60405180910390f35b6100d960048036038101906100d4919061063a565b6103af565b6040516100e69190610801565b60405180910390f35b6100f76103f8565b6040516101049190610736565b60405180910390f35b61011561041e565b6040516101229190610751565b60405180910390f35b6000805461013890610931565b80601f016020809104026020016040519081016040528092919081815260200182805461016490610931565b80156101b15780601f10610186576101008083540402835291602001916101b1565b820191906000526020600020905b81548152906001019060200180831161019457829003601f168201915b505050505081565b6102376040518060400160405280601b81526020017f53656e6465722062616c616e636520697320257320746f6b656e730000000000815250600460003373ffffffffffffffffffffffffffffffffffffffff1673ffffffffffffffffffffffffffffffffffffffff168152602001908152602001600020546104ac565b6102776040518060400160405280601e81526020017f547279696e6720746f2073656e6420257320746f6b656e7320746f20257300008152508284610548565b80600460003373ffffffffffffffffffffffffffffffffffffffff1673ffffffffffffffffffffffffffffffffffffffff1681526020019081526020016000205410156102f9576040517f08c379a00000000000000000000000000000000000000000000000000000000081526004016102f0906107e1565b60405180910390fd5b80600460003373ffffffffffffffffffffffffffffffffffffffff1673ffffffffffffffffffffffffffffffffffffffff1681526020019081526020016000206000828254610348919061088e565b9250508190555080600460008473ffffffffffffffffffffffffffffffffffffffff1673ffffffffffffffffffffffffffffffffffffffff168152602001908152602001600020600082825461039e9190610838565b925050819055505050565b60025481565b6000600460008373ffffffffffffffffffffffffffffffffffffffff1673ffffffffffffffffffffffffffffffffffffffff168152602001908152602001600020549050919050565b600160009054906101000a900473ffffffffffffffffffffffffffffffffffffffff1681565b6003805461042b90610931565b80601f016020809104026020016040519081016040528092919081815260200182805461045790610931565b80156104a45780601f10610479576101008083540402835291602001916104a4565b820191906000526020600020905b81548152906001019060200180831161048757829003601f168201915b505050505081565b61054482826040516024016104c2929190610773565b6040516020818303038152906040527f9710a9d0000000000000000000000000000000000000000000000000000000007bffffffffffffffffffffffffffffffffffffffffffffffffffffffff19166020820180517bffffffffffffffffffffffffffffffffffffffffffffffffffffffff83818316178352505050506105e7565b5050565b6105e2838383604051602401610560939291906107a3565b6040516020818303038152906040527fe3849f79000000000000000000000000000000000000000000000000000000007bffffffffffffffffffffffffffffffffffffffffffffffffffffffff19166020820180517bffffffffffffffffffffffffffffffffffffffffffffffffffffffff83818316178352505050506105e7565b505050565b60008151905060006a636f6e736f6c652e6c6f679050602083016000808483855afa5050505050565b60008135905061061f816109d2565b92915050565b600081359050610634816109e9565b92915050565b60006020828403121561064c57600080fd5b600061065a84828501610610565b91505092915050565b6000806040838503121561067657600080fd5b600061068485828601610610565b925050602061069585828601610625565b9150509250929050565b6106a8816108c2565b82525050565b60006106b98261081c565b6106c38185610827565b93506106d38185602086016108fe565b6106dc816109c1565b840191505092915050565b60006106f4601283610827565b91507f4e6f7420656e6f7567682062616c616e636500000000000000000000000000006000830152602082019050919050565b610730816108f4565b82525050565b600060208201905061074b600083018461069f565b92915050565b6000602082019050818103600083015261076b81846106ae565b905092915050565b6000604082019050818103600083015261078d81856106ae565b905061079c6020830184610727565b9392505050565b600060608201905081810360008301526107bd81866106ae565b90506107cc6020830185610727565b6107d9604083018461069f565b949350505050565b600060208201905081810360008301526107fa816106e7565b9050919050565b60006020820190506108166000830184610727565b92915050565b600081519050919050565b600082825260208201905092915050565b6000610843826108f4565b915061084e836108f4565b9250827fffffffffffffffffffffffffffffffffffffffffffffffffffffffffffffffff0382111561088357610882610963565b5b828201905092915050565b6000610899826108f4565b91506108a4836108f4565b9250828210156108b7576108b6610963565b5b828203905092915050565b60006108cd826108d4565b9050919050565b600073ffffffffffffffffffffffffffffffffffffffff82169050919050565b6000819050919050565b60005b8381101561091c578082015181840152602081019050610901565b8381111561092b576000848401525b50505050565b6000600282049050600182168061094957607f821691505b6020821081141561095d5761095c610992565b5b50919050565b7f4e487b7100000000000000000000000000000000000000000000000000000000600052601160045260246000fd5b7f4e487b7100000000000000000000000000000000000000000000000000000000600052602260045260246000fd5b6000601f19601f8301169050919050565b6109db816108c2565b81146109e657600080fd5b50565b6109f2816108f4565b81146109fd57600080fd5b5056fea264697066735822122065e57c45f2f0b5900cf14a007569308b03449c9271f24f8dd917a449108eaca064736f6c63430008000033",
  "linkReferences": {},
  "deployedLinkReferences": {}
}